{
  "contractName": "MedicalRecords",
  "abi": [
    {
      "inputs": [],
      "stateMutability": "nonpayable",
      "type": "constructor"
    },
    {
      "anonymous": false,
      "inputs": [
        {
          "indexed": true,
          "internalType": "address",
          "name": "patient",
          "type": "address"
        },
        {
          "indexed": true,
          "internalType": "address",
          "name": "doctor",
          "type": "address"
        }
      ],
      "name": "AccessGranted",
      "type": "event"
    },
    {
      "anonymous": false,
      "inputs": [
        {
          "indexed": true,
          "internalType": "address",
          "name": "patient",
          "type": "address"
        },
        {
          "indexed": true,
          "internalType": "address",
          "name": "doctor",
          "type": "address"
        }
      ],
      "name": "AccessRevoked",
      "type": "event"
    },
    {
      "anonymous": false,
      "inputs": [
        {
          "indexed": true,
          "internalType": "address",
          "name": "patient",
          "type": "address"
        },
        {
          "indexed": false,
          "internalType": "string",
          "name": "ipfsHash",
          "type": "string"
        }
      ],
      "name": "RecordUploaded",
      "type": "event"
    },
    {
      "anonymous": false,
      "inputs": [
        {
          "indexed": true,
          "internalType": "address",
          "name": "user",
          "type": "address"
        },
        {
          "indexed": false,
          "internalType": "enum MedicalRecords.Role",
          "name": "role",
          "type": "uint8"
        }
      ],
      "name": "UserRegistered",
      "type": "event"
    },
    {
      "inputs": [
        {
          "internalType": "address",
          "name": "",
          "type": "address"
        },
        {
          "internalType": "address",
          "name": "",
          "type": "address"
        }
      ],
      "name": "accessPermissions",
      "outputs": [
        {
          "internalType": "bool",
          "name": "",
          "type": "bool"
        }
      ],
      "stateMutability": "view",
      "type": "function",
      "constant": true
    },
    {
      "inputs": [],
      "name": "owner",
      "outputs": [
        {
          "internalType": "address",
          "name": "",
          "type": "address"
        }
      ],
      "stateMutability": "view",
      "type": "function",
      "constant": true
    },
    {
      "inputs": [
        {
          "internalType": "address",
          "name": "",
          "type": "address"
        }
      ],
      "name": "userRoles",
      "outputs": [
        {
          "internalType": "enum MedicalRecords.Role",
          "name": "",
          "type": "uint8"
        }
      ],
      "stateMutability": "view",
      "type": "function",
      "constant": true
    },
    {
      "inputs": [
        {
          "internalType": "uint8",
          "name": "role",
          "type": "uint8"
        }
      ],
      "name": "registerUser",
      "outputs": [],
      "stateMutability": "nonpayable",
      "type": "function"
    },
    {
      "inputs": [
        {
          "internalType": "string",
          "name": "ipfsHash",
          "type": "string"
        }
      ],
      "name": "uploadRecord",
      "outputs": [],
      "stateMutability": "nonpayable",
      "type": "function"
    },
    {
      "inputs": [
        {
          "internalType": "address",
          "name": "user",
          "type": "address"
        }
      ],
      "name": "getRecords",
      "outputs": [
        {
          "components": [
            {
              "internalType": "string",
              "name": "ipfsHash",
              "type": "string"
            },
            {
              "internalType": "address",
              "name": "uploader",
              "type": "address"
            }
          ],
          "internalType": "struct MedicalRecords.Record[]",
          "name": "",
          "type": "tuple[]"
        }
      ],
      "stateMutability": "view",
      "type": "function",
      "constant": true
    },
    {
      "inputs": [
        {
          "internalType": "address",
          "name": "doctor",
          "type": "address"
        }
      ],
      "name": "grantAccess",
      "outputs": [],
      "stateMutability": "nonpayable",
      "type": "function"
    },
    {
      "inputs": [
        {
          "internalType": "address",
          "name": "doctor",
          "type": "address"
        }
      ],
      "name": "revokeAccess",
      "outputs": [],
      "stateMutability": "nonpayable",
      "type": "function"
    }
  ],
  "bytecode": "0x608060405234801561001057600080fd5b50336000806101000a81548173ffffffffffffffffffffffffffffffffffffffff021916908373ffffffffffffffffffffffffffffffffffffffff1602179055506118bb806100606000396000f3fe608060405234801561001057600080fd5b50600436106100885760003560e01c80637fb869bb1161005b5780637fb869bb1461012557806385e68531146101415780638da5cb5b1461015d578063a0076e841461017b57610088565b806302b8c8cd1461008d5780630ae5e739146100a957806364b3b525146100c557806374d5e100146100f5575b600080fd5b6100a760048036038101906100a29190610d87565b6101ab565b005b6100c360048036038101906100be9190610e12565b6103bd565b005b6100df60048036038101906100da9190610e3f565b610614565b6040516100ec9190610e9a565b60405180910390f35b61010f600480360381019061010a9190610e12565b610643565b60405161011c9190610f2c565b60405180910390f35b61013f600480360381019061013a9190610fac565b610663565b005b61015b60048036038101906101569190610e12565b6108a0565b005b610165610a45565b6040516101729190611008565b60405180910390f35b61019560048036038101906101909190610e12565b610a69565b6040516101a291906111c1565b60405180910390f35b600060028111156101bf576101be610eb5565b5b600260003373ffffffffffffffffffffffffffffffffffffffff1673ffffffffffffffffffffffffffffffffffffffff16815260200190815260200160002060009054906101000a900460ff16600281111561021e5761021d610eb5565b5b1461025e576040517f08c379a000000000000000000000000000000000000000000000000000000000815260040161025590611240565b60405180910390fd5b6001600281111561027257610271610eb5565b5b60ff168160ff16148061029c575060028081111561029357610292610eb5565b5b60ff168160ff16145b6102db576040517f08c379a00000000000000000000000000000000000000000000000000000000081526004016102d2906112ac565b60405180910390fd5b8060ff1660028111156102f1576102f0610eb5565b5b600260003373ffffffffffffffffffffffffffffffffffffffff1673ffffffffffffffffffffffffffffffffffffffff16815260200190815260200160002060006101000a81548160ff0219169083600281111561035257610351610eb5565b5b02179055503373ffffffffffffffffffffffffffffffffffffffff167f8e18574f8a7333e6a87112742a55853a643e2f0550f4e1a3a2c3f1bb2994441d8260ff1660028111156103a5576103a4610eb5565b5b6040516103b29190610f2c565b60405180910390a250565b600160028111156103d1576103d0610eb5565b5b600260003373ffffffffffffffffffffffffffffffffffffffff1673ffffffffffffffffffffffffffffffffffffffff16815260200190815260200160002060009054906101000a900460ff1660028111156104305761042f610eb5565b5b14610470576040517f08c379a000000000000000000000000000000000000000000000000000000000815260040161046790611318565b60405180910390fd5b60028081111561048357610482610eb5565b5b600260008373ffffffffffffffffffffffffffffffffffffffff1673ffffffffffffffffffffffffffffffffffffffff16815260200190815260200160002060009054906101000a900460ff1660028111156104e2576104e1610eb5565b5b14610522576040517f08c379a0000000000000000000000000000000000000000000000000000000008152600401610519906113aa565b60405180910390fd5b6001600360003373ffffffffffffffffffffffffffffffffffffffff1673ffffffffffffffffffffffffffffffffffffffff16815260200190815260200160002060008373ffffffffffffffffffffffffffffffffffffffff1673ffffffffffffffffffffffffffffffffffffffff16815260200190815260200160002060006101000a81548160ff0219169083151502179055508073ffffffffffffffffffffffffffffffffffffffff163373ffffffffffffffffffffffffffffffffffffffff167f9f520b3bfc56d06f7065d10b4683b3f57ac8895d5026cd176dee95ce1454cb8d60405160405180910390a350565b60036020528160005260406000206020528060005260406000206000915091509054906101000a900460ff1681565b60026020528060005260406000206000915054906101000a900460ff1681565b6001600281111561067757610676610eb5565b5b600260003373ffffffffffffffffffffffffffffffffffffffff1673ffffffffffffffffffffffffffffffffffffffff16815260200190815260200160002060009054906101000a900460ff1660028111156106d6576106d5610eb5565b5b14610716576040517f08c379a000000000000000000000000000000000000000000000000000000000815260040161070d90611416565b60405180910390fd5b600160003373ffffffffffffffffffffffffffffffffffffffff1673ffffffffffffffffffffffffffffffffffffffff168152602001908152602001600020604051806040016040528084848080601f016020809104026020016040519081016040528093929190818152602001838380828437600081840152601f19601f8201169050808301925050505050505081526020013373ffffffffffffffffffffffffffffffffffffffff1681525090806001815401808255809150506001900390600052602060002090600202016000909190919091506000820151816000019081610802919061167b565b5060208201518160010160006101000a81548173ffffffffffffffffffffffffffffffffffffffff021916908373ffffffffffffffffffffffffffffffffffffffff16021790555050503373ffffffffffffffffffffffffffffffffffffffff167f01b64c1967d10407b4ff97725353edea760930f8e25d265e786a16eecbe4d7f78383604051610894929190611789565b60405180910390a25050565b600160028111156108b4576108b3610eb5565b5b600260003373ffffffffffffffffffffffffffffffffffffffff1673ffffffffffffffffffffffffffffffffffffffff16815260200190815260200160002060009054906101000a900460ff16600281111561091357610912610eb5565b5b14610953576040517f08c379a000000000000000000000000000000000000000000000000000000000815260040161094a906117f9565b60405180910390fd5b6000600360003373ffffffffffffffffffffffffffffffffffffffff1673ffffffffffffffffffffffffffffffffffffffff16815260200190815260200160002060008373ffffffffffffffffffffffffffffffffffffffff1673ffffffffffffffffffffffffffffffffffffffff16815260200190815260200160002060006101000a81548160ff0219169083151502179055508073ffffffffffffffffffffffffffffffffffffffff163373ffffffffffffffffffffffffffffffffffffffff167f825c8be24eb0df19500f63e86c29e7d0d951e73056b889b891d85e40938d9b6e60405160405180910390a350565b60008054906101000a900473ffffffffffffffffffffffffffffffffffffffff1681565b60608173ffffffffffffffffffffffffffffffffffffffff163373ffffffffffffffffffffffffffffffffffffffff161480610af0575060008054906101000a900473ffffffffffffffffffffffffffffffffffffffff1673ffffffffffffffffffffffffffffffffffffffff163373ffffffffffffffffffffffffffffffffffffffff16145b80610b815750600360008373ffffffffffffffffffffffffffffffffffffffff1673ffffffffffffffffffffffffffffffffffffffff16815260200190815260200160002060003373ffffffffffffffffffffffffffffffffffffffff1673ffffffffffffffffffffffffffffffffffffffff16815260200190815260200160002060009054906101000a900460ff165b610bc0576040517f08c379a0000000000000000000000000000000000000000000000000000000008152600401610bb790611865565b60405180910390fd5b600160008373ffffffffffffffffffffffffffffffffffffffff1673ffffffffffffffffffffffffffffffffffffffff168152602001908152602001600020805480602002602001604051908101604052809291908181526020016000905b82821015610d395783829060005260206000209060020201604051806040016040529081600082018054610c5290611494565b80601f0160208091040260200160405190810160405280929190818152602001828054610c7e90611494565b8015610ccb5780601f10610ca057610100808354040283529160200191610ccb565b820191906000526020600020905b815481529060010190602001808311610cae57829003601f168201915b505050505081526020016001820160009054906101000a900473ffffffffffffffffffffffffffffffffffffffff1673ffffffffffffffffffffffffffffffffffffffff1673ffffffffffffffffffffffffffffffffffffffff168152505081526020019060010190610c1f565b505050509050919050565b600080fd5b600080fd5b600060ff82169050919050565b610d6481610d4e565b8114610d6f57600080fd5b50565b600081359050610d8181610d5b565b92915050565b600060208284031215610d9d57610d9c610d44565b5b6000610dab84828501610d72565b91505092915050565b600073ffffffffffffffffffffffffffffffffffffffff82169050919050565b6000610ddf82610db4565b9050919050565b610def81610dd4565b8114610dfa57600080fd5b50565b600081359050610e0c81610de6565b92915050565b600060208284031215610e2857610e27610d44565b5b6000610e3684828501610dfd565b91505092915050565b60008060408385031215610e5657610e55610d44565b5b6000610e6485828601610dfd565b9250506020610e7585828601610dfd565b9150509250929050565b60008115159050919050565b610e9481610e7f565b82525050565b6000602082019050610eaf6000830184610e8b565b92915050565b7f4e487b7100000000000000000000000000000000000000000000000000000000600052602160045260246000fd5b60038110610ef557610ef4610eb5565b5b50565b6000819050610f0682610ee4565b919050565b6000610f1682610ef8565b9050919050565b610f2681610f0b565b82525050565b6000602082019050610f416000830184610f1d565b92915050565b600080fd5b600080fd5b600080fd5b60008083601f840112610f6c57610f6b610f47565b5b8235905067ffffffffffffffff811115610f8957610f88610f4c565b5b602083019150836001820283011115610fa557610fa4610f51565b5b9250929050565b60008060208385031215610fc357610fc2610d44565b5b600083013567ffffffffffffffff811115610fe157610fe0610d49565b5b610fed85828601610f56565b92509250509250929050565b61100281610dd4565b82525050565b600060208201905061101d6000830184610ff9565b92915050565b600081519050919050565b600082825260208201905092915050565b6000819050602082019050919050565b600081519050919050565b600082825260208201905092915050565b60005b8381101561108957808201518184015260208101905061106e565b60008484015250505050565b6000601f19601f8301169050919050565b60006110b18261104f565b6110bb818561105a565b93506110cb81856020860161106b565b6110d481611095565b840191505092915050565b6110e881610dd4565b82525050565b6000604083016000830151848203600086015261110b82826110a6565b915050602083015161112060208601826110df565b508091505092915050565b600061113783836110ee565b905092915050565b6000602082019050919050565b600061115782611023565b611161818561102e565b9350836020820285016111738561103f565b8060005b858110156111af5784840389528151611190858261112b565b945061119b8361113f565b925060208a01995050600181019050611177565b50829750879550505050505092915050565b600060208201905081810360008301526111db818461114c565b905092915050565b600082825260208201905092915050565b7f416c726561647920726567697374657265640000000000000000000000000000600082015250565b600061122a6012836111e3565b9150611235826111f4565b602082019050919050565b600060208201905081810360008301526112598161121d565b9050919050565b7f496e76616c696420726f6c650000000000000000000000000000000000000000600082015250565b6000611296600c836111e3565b91506112a182611260565b602082019050919050565b600060208201905081810360008301526112c581611289565b9050919050565b7f4f6e6c792070617469656e74732063616e206772616e74206163636573730000600082015250565b6000611302601e836111e3565b915061130d826112cc565b602082019050919050565b60006020820190508181036000830152611331816112f5565b9050919050565b7f4f6e6c7920646f63746f72732063616e206265206772616e746564206163636560008201527f7373000000000000000000000000000000000000000000000000000000000000602082015250565b60006113946022836111e3565b915061139f82611338565b604082019050919050565b600060208201905081810360008301526113c381611387565b9050919050565b7f4f6e6c792070617469656e74732063616e2075706c6f6164207265636f726473600082015250565b60006114006020836111e3565b915061140b826113ca565b602082019050919050565b6000602082019050818103600083015261142f816113f3565b9050919050565b7f4e487b7100000000000000000000000000000000000000000000000000000000600052604160045260246000fd5b7f4e487b7100000000000000000000000000000000000000000000000000000000600052602260045260246000fd5b600060028204905060018216806114ac57607f821691505b6020821081036114bf576114be611465565b5b50919050565b60008190508160005260206000209050919050565b60006020601f8301049050919050565b600082821b905092915050565b6000600883026115277fffffffffffffffffffffffffffffffffffffffffffffffffffffffffffffffff826114ea565b61153186836114ea565b95508019841693508086168417925050509392505050565b6000819050919050565b6000819050919050565b600061157861157361156e84611549565b611553565b611549565b9050919050565b6000819050919050565b6115928361155d565b6115a661159e8261157f565b8484546114f7565b825550505050565b600090565b6115bb6115ae565b6115c6818484611589565b505050565b5b818110156115ea576115df6000826115b3565b6001810190506115cc565b5050565b601f82111561162f57611600816114c5565b611609846114da565b81016020851015611618578190505b61162c611624856114da565b8301826115cb565b50505b505050565b600082821c905092915050565b600061165260001984600802611634565b1980831691505092915050565b600061166b8383611641565b9150826002028217905092915050565b6116848261104f565b67ffffffffffffffff81111561169d5761169c611436565b5b6116a78254611494565b6116b28282856115ee565b600060209050601f8311600181146116e557600084156116d3578287015190505b6116dd858261165f565b865550611745565b601f1984166116f3866114c5565b60005b8281101561171b578489015182556001820191506020850194506020810190506116f6565b868310156117385784890151611734601f891682611641565b8355505b6001600288020188555050505b505050505050565b82818337600083830152505050565b600061176883856111e3565b935061177583858461174d565b61177e83611095565b840190509392505050565b600060208201905081810360008301526117a481848661175c565b90509392505050565b7f4f6e6c792070617469656e74732063616e207265766f6b652061636365737300600082015250565b60006117e3601f836111e3565b91506117ee826117ad565b602082019050919050565b60006020820190508181036000830152611812816117d6565b9050919050565b7f556e617574686f72697a65642061636365737300000000000000000000000000600082015250565b600061184f6013836111e3565b915061185a82611819565b602082019050919050565b6000602082019050818103600083015261187e81611842565b905091905056fea26469706673582212201f4b5a69c3e3326d827a7a7b0ce04aec66eff39d4c2ceeda479a7d8cc70ffad064736f6c63430008130033",
  "immutableReferences": {},
  "source": "// SPDX-License-Identifier: MIT\r\npragma solidity ^0.8.19;\r\n\r\ncontract MedicalRecords {\r\n    address public owner;\r\n\r\n    enum Role { None, Patient, Doctor }\r\n\r\n    struct Record {\r\n        string ipfsHash;\r\n        address uploader;\r\n    }\r\n\r\n    mapping(address => Record[]) private records;\r\n    mapping(address => Role) public userRoles;\r\n    mapping(address => mapping(address => bool)) public accessPermissions;\r\n\r\n    event RecordUploaded(address indexed patient, string ipfsHash);\r\n    event UserRegistered(address indexed user, Role role);\r\n    event AccessGranted(address indexed patient, address indexed doctor);\r\n    event AccessRevoked(address indexed patient, address indexed doctor);\r\n\r\n    constructor() {\r\n        owner = msg.sender;\r\n    }\r\n\r\n    //  Register as patient or doctor\r\n    function registerUser(uint8 role) external {\r\n        require(userRoles[msg.sender] == Role.None, \"Already registered\");\r\n        require(role == uint8(Role.Patient) || role == uint8(Role.Doctor), \"Invalid role\");\r\n        userRoles[msg.sender] = Role(role);\r\n        emit UserRegistered(msg.sender, Role(role));\r\n    }\r\n\r\n    //  Upload record\r\n    function uploadRecord(string calldata ipfsHash) external {\r\n        require(userRoles[msg.sender] == Role.Patient, \"Only patients can upload records\");\r\n        records[msg.sender].push(Record(ipfsHash, msg.sender));\r\n        emit RecordUploaded(msg.sender, ipfsHash);\r\n    }\r\n\r\n    //  View records (owner, self, or authorized doctor)\r\n    function getRecords(address user) external view returns (Record[] memory) {\r\n        require(\r\n            msg.sender == user || msg.sender == owner || accessPermissions[user][msg.sender],\r\n            \"Unauthorized access\"\r\n        );\r\n        return records[user];\r\n    }\r\n\r\n    //  Grant doctor access\r\n    function grantAccess(address doctor) external {\r\n        require(userRoles[msg.sender] == Role.Patient, \"Only patients can grant access\");\r\n        require(userRoles[doctor] == Role.Doctor, \"Only doctors can be granted access\");\r\n        accessPermissions[msg.sender][doctor] = true;\r\n        emit AccessGranted(msg.sender, doctor);\r\n    }\r\n\r\n    //  Revoke doctor access\r\n    function revokeAccess(address doctor) external {\r\n        require(userRoles[msg.sender] == Role.Patient, \"Only patients can revoke access\");\r\n        accessPermissions[msg.sender][doctor] = false;\r\n        emit AccessRevoked(msg.sender, doctor);\r\n    }\r\n}\r\n",
  "sourcePath": "C:\\6th_SEM\\BLOCKCHAIN\\PROJECT\\medrecords-dapp\\contracts\\MedicalRecords.sol",
  "compiler": {
    "name": "solc",
    "version": "0.8.19+commit.7dd6d404.Emscripten.clang"
  },
  "schemaVersion": "3.4.16",
  "updatedAt": "2025-04-24T04:29:40.634Z",
  "networkType": "ethereum",
  "devdoc": {
    "kind": "dev",
    "methods": {},
    "version": 1
  },
  "userdoc": {
    "kind": "user",
    "methods": {},
    "version": 1
  }
}